{
  "contractName": "TenderAuction",
  "abi": [
    {
      "constant": true,
      "inputs": [],
      "name": "bidCount",
      "outputs": [
        {
          "internalType": "uint256",
          "name": "",
          "type": "uint256"
        }
      ],
      "payable": false,
      "stateMutability": "view",
      "type": "function"
    },
    {
      "constant": true,
      "inputs": [],
      "name": "bidderCount",
      "outputs": [
        {
          "internalType": "uint256",
          "name": "",
          "type": "uint256"
        }
      ],
      "payable": false,
      "stateMutability": "view",
      "type": "function"
    },
    {
      "constant": true,
      "inputs": [
        {
          "internalType": "address",
          "name": "",
          "type": "address"
        }
      ],
      "name": "bidders",
      "outputs": [
        {
          "internalType": "uint256",
          "name": "id",
          "type": "uint256"
        },
        {
          "internalType": "string",
          "name": "username",
          "type": "string"
        }
      ],
      "payable": false,
      "stateMutability": "view",
      "type": "function"
    },
    {
      "constant": true,
      "inputs": [
        {
          "internalType": "uint256",
          "name": "",
          "type": "uint256"
        }
      ],
      "name": "bids",
      "outputs": [
        {
          "internalType": "uint256",
          "name": "id",
          "type": "uint256"
        },
        {
          "internalType": "uint256",
          "name": "tenderId",
          "type": "uint256"
        },
        {
          "internalType": "string",
          "name": "tenderTitle",
          "type": "string"
        },
        {
          "internalType": "uint256",
          "name": "bid",
          "type": "uint256"
        },
        {
          "internalType": "address",
          "name": "userHash",
          "type": "address"
        }
      ],
      "payable": false,
      "stateMutability": "view",
      "type": "function"
    },
    {
      "constant": true,
      "inputs": [],
      "name": "tenderCount",
      "outputs": [
        {
          "internalType": "uint256",
          "name": "",
          "type": "uint256"
        }
      ],
      "payable": false,
      "stateMutability": "view",
      "type": "function"
    },
    {
      "constant": true,
      "inputs": [
        {
          "internalType": "uint256",
          "name": "",
          "type": "uint256"
        }
      ],
      "name": "tenders",
      "outputs": [
        {
          "internalType": "uint256",
          "name": "id",
          "type": "uint256"
        },
        {
          "internalType": "string",
          "name": "itemName",
          "type": "string"
        },
        {
          "internalType": "string",
          "name": "itemDescription",
          "type": "string"
        },
        {
          "internalType": "uint256",
          "name": "quantity",
          "type": "uint256"
        },
        {
          "internalType": "string",
          "name": "area",
          "type": "string"
        },
        {
          "internalType": "uint256",
          "name": "deadline",
          "type": "uint256"
        },
        {
          "internalType": "address",
          "name": "userHash",
          "type": "address"
        }
      ],
      "payable": false,
      "stateMutability": "view",
      "type": "function"
    },
    {
      "constant": true,
      "inputs": [],
      "name": "uploaderCount",
      "outputs": [
        {
          "internalType": "uint256",
          "name": "",
          "type": "uint256"
        }
      ],
      "payable": false,
      "stateMutability": "view",
      "type": "function"
    },
    {
      "constant": true,
      "inputs": [
        {
          "internalType": "address",
          "name": "",
          "type": "address"
        }
      ],
      "name": "uploaders",
      "outputs": [
        {
          "internalType": "uint256",
          "name": "id",
          "type": "uint256"
        },
        {
          "internalType": "string",
          "name": "username",
          "type": "string"
        }
      ],
      "payable": false,
      "stateMutability": "view",
      "type": "function"
    },
    {
      "constant": true,
      "inputs": [
        {
          "internalType": "uint256",
          "name": "",
          "type": "uint256"
        }
      ],
      "name": "whoIsBidder",
      "outputs": [
        {
          "internalType": "address",
          "name": "",
          "type": "address"
        }
      ],
      "payable": false,
      "stateMutability": "view",
      "type": "function"
    },
    {
      "constant": true,
      "inputs": [
        {
          "internalType": "uint256",
          "name": "",
          "type": "uint256"
        }
      ],
      "name": "whoIsUploader",
      "outputs": [
        {
          "internalType": "address",
          "name": "",
          "type": "address"
        }
      ],
      "payable": false,
      "stateMutability": "view",
      "type": "function"
    },
    {
      "constant": false,
      "inputs": [
        {
          "internalType": "string",
          "name": "_username",
          "type": "string"
        }
      ],
      "name": "createUploader",
      "outputs": [],
      "payable": false,
      "stateMutability": "nonpayable",
      "type": "function"
    },
    {
      "constant": false,
      "inputs": [
        {
          "internalType": "string",
          "name": "_username",
          "type": "string"
        }
      ],
      "name": "createBidder",
      "outputs": [],
      "payable": false,
      "stateMutability": "nonpayable",
      "type": "function"
    },
    {
      "constant": false,
      "inputs": [
        {
          "internalType": "string",
          "name": "_itemName",
          "type": "string"
        },
        {
          "internalType": "string",
          "name": "_itemDescription",
          "type": "string"
        },
        {
          "internalType": "uint256",
          "name": "_quantity",
          "type": "uint256"
        },
        {
          "internalType": "string",
          "name": "_area",
          "type": "string"
        },
        {
          "internalType": "uint256",
          "name": "_deadline",
          "type": "uint256"
        }
      ],
      "name": "createTender",
      "outputs": [],
      "payable": false,
      "stateMutability": "nonpayable",
      "type": "function"
    },
    {
      "constant": false,
      "inputs": [
        {
          "internalType": "uint256",
          "name": "_tenderId",
          "type": "uint256"
        },
        {
          "internalType": "uint256",
          "name": "_bid",
          "type": "uint256"
        }
      ],
      "name": "createBid",
      "outputs": [],
      "payable": false,
      "stateMutability": "nonpayable",
      "type": "function"
    }
  ],
  "bytecode": "0x60806040526000805560006001556000600255600060035534801561002357600080fd5b50611609806100336000396000f3fe608060405234801561001057600080fd5b50600436106100ea5760003560e01c8063913b6c171161008c578063b7751c7111610066578063b7751c711461027c578063ce6b980114610298578063d45fada2146102b4578063fcc8f793146102d2576100ea565b8063913b6c17146102125780639fa958631461022e578063b40a56271461025e576100ea565b806346b1cb5d116100c857806346b1cb5d146101775780635dc1c9ab146101a757806363968e19146101c357806370d29c11146101f4576100ea565b80631f058776146100ef5780634423c5f11461010d578063465e1def14610141575b600080fd5b6100f7610303565b604051610104919061136b565b60405180910390f35b61012760048036036101229190810190611234565b610309565b60405161013895949392919061143a565b60405180910390f35b61015b60048036036101569190810190611234565b6103f7565b60405161016e97969594939291906113b6565b60405180910390f35b610191600480360361018c9190810190611234565b610621565b60405161019e9190611330565b60405180910390f35b6101c160048036036101bc9190810190611134565b610654565b005b6101dd60048036036101d8919081019061110b565b6108d3565b6040516101eb929190611386565b60405180910390f35b6101fc61098f565b604051610209919061136b565b60405180910390f35b61022c60048036036102279190810190611175565b610995565b005b61024860048036036102439190810190611234565b610acb565b6040516102559190611330565b60405180910390f35b610266610afe565b604051610273919061136b565b60405180910390f35b6102966004803603610291919081019061125d565b610b04565b005b6102b260048036036102ad9190810190611134565b610ca7565b005b6102bc610f26565b6040516102c9919061136b565b60405180910390f35b6102ec60048036036102e7919081019061110b565b610f2c565b6040516102fa929190611386565b60405180910390f35b60005481565b6005602052806000526040600020600091509050806000015490806001015490806002018054600181600116156101000203166002900480601f0160208091040260200160405190810160405280929190818152602001828054600181600116156101000203166002900480156103c15780601f10610396576101008083540402835291602001916103c1565b820191906000526020600020905b8154815290600101906020018083116103a457829003601f168201915b5050505050908060030154908060040160009054906101000a900473ffffffffffffffffffffffffffffffffffffffff16905085565b6004602052806000526040600020600091509050806000015490806001018054600181600116156101000203166002900480601f0160208091040260200160405190810160405280929190818152602001828054600181600116156101000203166002900480156104a95780601f1061047e576101008083540402835291602001916104a9565b820191906000526020600020905b81548152906001019060200180831161048c57829003601f168201915b505050505090806002018054600181600116156101000203166002900480601f0160208091040260200160405190810160405280929190818152602001828054600181600116156101000203166002900480156105475780601f1061051c57610100808354040283529160200191610547565b820191906000526020600020905b81548152906001019060200180831161052a57829003601f168201915b505050505090806003015490806004018054600181600116156101000203166002900480601f0160208091040260200160405190810160405280929190818152602001828054600181600116156101000203166002900480156105eb5780601f106105c0576101008083540402835291602001916105eb565b820191906000526020600020905b8154815290600101906020018083116105ce57829003601f168201915b5050505050908060050154908060060160009054906101000a900473ffffffffffffffffffffffffffffffffffffffff16905087565b60076020528060005260406000206000915054906101000a900473ffffffffffffffffffffffffffffffffffffffff1681565b336000600190505b600254811161071e578173ffffffffffffffffffffffffffffffffffffffff166006600083815260200190815260200160002060009054906101000a900473ffffffffffffffffffffffffffffffffffffffff1673ffffffffffffffffffffffffffffffffffffffff161415610711576002600114610710576040517f08c379a00000000000000000000000000000000000000000000000000000000081526004016107079061134b565b60405180910390fd5b5b808060010191505061065c565b506000600190505b60035481116107e8578173ffffffffffffffffffffffffffffffffffffffff166007600083815260200190815260200160002060009054906101000a900473ffffffffffffffffffffffffffffffffffffffff1673ffffffffffffffffffffffffffffffffffffffff1614156107db5760026001146107da576040517f08c379a00000000000000000000000000000000000000000000000000000000081526004016107d19061134b565b60405180910390fd5b5b8080600101915050610726565b506002600081548092919060010191905055503360066000600254815260200190815260200160002060006101000a81548173ffffffffffffffffffffffffffffffffffffffff021916908373ffffffffffffffffffffffffffffffffffffffff1602179055506040518060400160405280600254815260200183815250600860003373ffffffffffffffffffffffffffffffffffffffff1673ffffffffffffffffffffffffffffffffffffffff1681526020019081526020016000206000820151816000015560208201518160010190805190602001906108cb929190610fe8565b509050505050565b6008602052806000526040600020600091509050806000015490806001018054600181600116156101000203166002900480601f0160208091040260200160405190810160405280929190818152602001828054600181600116156101000203166002900480156109855780601f1061095a57610100808354040283529160200191610985565b820191906000526020600020905b81548152906001019060200180831161096857829003601f168201915b5050505050905082565b60035481565b60008081548092919060010191905055506040518060e0016040528060005481526020018681526020018581526020018481526020018381526020018281526020013373ffffffffffffffffffffffffffffffffffffffff168152506004600080548152602001908152602001600020600082015181600001556020820151816001019080519060200190610a2b929190610fe8565b506040820151816002019080519060200190610a48929190610fe8565b50606082015181600301556080820151816004019080519060200190610a6f929190610fe8565b5060a0820151816005015560c08201518160060160006101000a81548173ffffffffffffffffffffffffffffffffffffffff021916908373ffffffffffffffffffffffffffffffffffffffff1602179055509050505050505050565b60066020528060005260406000206000915054906101000a900473ffffffffffffffffffffffffffffffffffffffff1681565b60015481565b6001600081548092919060010191905055506060600460008481526020019081526020016000206001018054600181600116156101000203166002900480601f016020809104026020016040519081016040528092919081815260200182805460018160011615610100020316600290048015610bc25780601f10610b9757610100808354040283529160200191610bc2565b820191906000526020600020905b815481529060010190602001808311610ba557829003601f168201915b505050505090506040518060a0016040528060015481526020018481526020018281526020018381526020013373ffffffffffffffffffffffffffffffffffffffff1681525060056000600154815260200190815260200160002060008201518160000155602082015181600101556040820151816002019080519060200190610c4d929190610fe8565b506060820151816003015560808201518160040160006101000a81548173ffffffffffffffffffffffffffffffffffffffff021916908373ffffffffffffffffffffffffffffffffffffffff160217905550905050505050565b336000600190505b6002548111610d71578173ffffffffffffffffffffffffffffffffffffffff166006600083815260200190815260200160002060009054906101000a900473ffffffffffffffffffffffffffffffffffffffff1673ffffffffffffffffffffffffffffffffffffffff161415610d64576002600114610d63576040517f08c379a0000000000000000000000000000000000000000000000000000000008152600401610d5a9061134b565b60405180910390fd5b5b8080600101915050610caf565b506000600190505b6003548111610e3b578173ffffffffffffffffffffffffffffffffffffffff166007600083815260200190815260200160002060009054906101000a900473ffffffffffffffffffffffffffffffffffffffff1673ffffffffffffffffffffffffffffffffffffffff161415610e2e576002600114610e2d576040517f08c379a0000000000000000000000000000000000000000000000000000000008152600401610e249061134b565b60405180910390fd5b5b8080600101915050610d79565b506003600081548092919060010191905055503360076000600354815260200190815260200160002060006101000a81548173ffffffffffffffffffffffffffffffffffffffff021916908373ffffffffffffffffffffffffffffffffffffffff1602179055506040518060400160405280600354815260200183815250600960003373ffffffffffffffffffffffffffffffffffffffff1673ffffffffffffffffffffffffffffffffffffffff168152602001908152602001600020600082015181600001556020820151816001019080519060200190610f1e929190610fe8565b509050505050565b60025481565b6009602052806000526040600020600091509050806000015490806001018054600181600116156101000203166002900480601f016020809104026020016040519081016040528092919081815260200182805460018160011615610100020316600290048015610fde5780601f10610fb357610100808354040283529160200191610fde565b820191906000526020600020905b815481529060010190602001808311610fc157829003601f168201915b5050505050905082565b828054600181600116156101000203166002900490600052602060002090601f016020900481019282601f1061102957805160ff1916838001178555611057565b82800160010185558215611057579182015b8281111561105657825182559160200191906001019061103b565b5b5090506110649190611068565b5090565b61108a91905b8082111561108657600081600090555060010161106e565b5090565b90565b60008135905061109c81611598565b92915050565b600082601f8301126110b357600080fd5b81356110c66110c1826114c1565b611494565b915080825260208301602083018583830111156110e257600080fd5b6110ed838284611545565b50505092915050565b600081359050611105816115af565b92915050565b60006020828403121561111d57600080fd5b600061112b8482850161108d565b91505092915050565b60006020828403121561114657600080fd5b600082013567ffffffffffffffff81111561116057600080fd5b61116c848285016110a2565b91505092915050565b600080600080600060a0868803121561118d57600080fd5b600086013567ffffffffffffffff8111156111a757600080fd5b6111b3888289016110a2565b955050602086013567ffffffffffffffff8111156111d057600080fd5b6111dc888289016110a2565b94505060406111ed888289016110f6565b935050606086013567ffffffffffffffff81111561120a57600080fd5b611216888289016110a2565b9250506080611227888289016110f6565b9150509295509295909350565b60006020828403121561124657600080fd5b6000611254848285016110f6565b91505092915050565b6000806040838503121561127057600080fd5b600061127e858286016110f6565b925050602061128f858286016110f6565b9150509250929050565b6112a281611509565b82525050565b60006112b3826114ed565b6112bd81856114f8565b93506112cd818560208601611554565b6112d681611587565b840191505092915050565b60006112ee6017836114f8565b91507f4164647265737320616c72656164792070726573656e740000000000000000006000830152602082019050919050565b61132a8161153b565b82525050565b60006020820190506113456000830184611299565b92915050565b60006020820190508181036000830152611364816112e1565b9050919050565b60006020820190506113806000830184611321565b92915050565b600060408201905061139b6000830185611321565b81810360208301526113ad81846112a8565b90509392505050565b600060e0820190506113cb600083018a611321565b81810360208301526113dd81896112a8565b905081810360408301526113f181886112a8565b90506114006060830187611321565b818103608083015261141281866112a8565b905061142160a0830185611321565b61142e60c0830184611299565b98975050505050505050565b600060a08201905061144f6000830188611321565b61145c6020830187611321565b818103604083015261146e81866112a8565b905061147d6060830185611321565b61148a6080830184611299565b9695505050505050565b6000604051905081810181811067ffffffffffffffff821117156114b757600080fd5b8060405250919050565b600067ffffffffffffffff8211156114d857600080fd5b601f19601f8301169050602081019050919050565b600081519050919050565b600082825260208201905092915050565b60006115148261151b565b9050919050565b600073ffffffffffffffffffffffffffffffffffffffff82169050919050565b6000819050919050565b82818337600083830152505050565b60005b83811015611572578082015181840152602081019050611557565b83811115611581576000848401525b50505050565b6000601f19601f8301169050919050565b6115a181611509565b81146115ac57600080fd5b50565b6115b88161153b565b81146115c357600080fd5b5056fea365627a7a723158207f7250c9602cf2feb1dd584915da985bb11fb747236a0c2df298abd503e4af586c6578706572696d656e74616cf564736f6c63430005100040",
  "source": "// SPDX-License-Identifier: MIT\npragma solidity >=0.4.21;\npragma experimental ABIEncoderV2;\n\ncontract TenderAuction {\n    uint public tenderCount = 0;\n    uint public bidCount = 0;\n    uint public uploaderCount = 0;\n    uint public bidderCount = 0;\n\n    struct Uploader {\n        uint id;\n        string username;\n    }\n\n    struct Bidder {\n        uint id;\n        string username;\n    }\n\n    struct Bid {\n        uint id;\n        uint tenderId;\n        string tenderTitle;\n        uint bid;\n        address userHash;\n    }\n\n    struct Tender {\n        uint id;\n        string itemName;\n        string itemDescription;\n        uint quantity;\n        string area;\n        uint deadline;\n        address userHash;\n    }\n\n    mapping (uint => Tender) public tenders;\n    mapping (uint => Bid) public bids;\n    mapping (uint => address) public whoIsUploader;\n    mapping (uint => address) public whoIsBidder;\n    mapping (address => Uploader) public uploaders;\n    mapping (address => Bidder) public bidders;\n\n    // modifier isUploader(address _userHash) {\n    //     require(uploaders[_userHash]);\n    //     _;\n    // }\n\n    // modifier isBidder(address _userHash) {\n    //     require(bidders[_userHash]);\n    //     _;\n    // }\n\n    modifier alreadyPresent(address _address) {\n        for(uint i = 1; i <= uploaderCount; i++) {\n            if(whoIsUploader[i] == _address) {\n                require(1 == 2, \"Address already present\");\n            }\n        }\n\n        for(uint i = 1; i <= bidderCount; i++) {\n            if(whoIsBidder[i] == _address) {\n                require(1 == 2, \"Address already present\");\n            }   \n        }\n        _;\n    }\n\n    function createUploader(string memory _username) public alreadyPresent(msg.sender) {\n        uploaderCount++;\n        whoIsUploader[uploaderCount] = msg.sender;\n        uploaders[msg.sender] = Uploader(uploaderCount, _username);\n    }\n\n    function createBidder(string memory _username) public alreadyPresent(msg.sender) {\n        bidderCount++;\n        whoIsBidder[bidderCount] = msg.sender;\n        bidders[msg.sender] = Bidder(bidderCount, _username);\n    }\n\n    function createTender(string memory _itemName, string memory _itemDescription, uint _quantity, string memory _area, uint _deadline) public {\n        tenderCount++;\n        tenders[tenderCount] = Tender(tenderCount, _itemName, _itemDescription, _quantity, _area, _deadline, msg.sender);\n    }\n\n    function createBid(uint _tenderId, uint _bid) public {\n        bidCount++;\n        string memory tenderName = tenders[_tenderId].itemName;\n        bids[bidCount] = Bid(bidCount, _tenderId, tenderName, _bid, msg.sender);\n    }\n}\n\n\n\n//Testing the code",
  "sourcePath": "/home/aniketdatar/Downloads/AnotherTender/contracts/Tender.sol",
  "compiler": {
    "name": "solc",
    "version": "0.5.16+commit.9c3226ce.Emscripten.clang"
  },
  "schemaVersion": "3.4.11",
  "updatedAt": "2023-04-21T12:08:15.718Z",
  "networkType": "ethereum",
  "devdoc": {
    "methods": {}
  },
  "userdoc": {
    "methods": {}
  }
}